{"abi":[{"type":"constructor","inputs":[{"name":"_receiveAddr","type":"address","internalType":"address"}],"stateMutability":"nonpayable"},{"type":"function","name":"RECEIVE_ADDR","inputs":[],"outputs":[{"name":"","type":"address","internalType":"address"}],"stateMutability":"view"},{"type":"function","name":"sendMes","inputs":[{"name":"mes","type":"tuple","internalType":"struct Sent.Mes","components":[{"name":"id","type":"uint256","internalType":"uint256"},{"name":"from","type":"address","internalType":"address"},{"name":"to","type":"address","internalType":"address"}]}],"outputs":[],"stateMutability":"nonpayable"},{"type":"event","name":"MessageSent","inputs":[{"name":"id","type":"uint256","indexed":true,"internalType":"uint256"},{"name":"from","type":"address","indexed":true,"internalType":"address"},{"name":"to","type":"address","indexed":true,"internalType":"address"}],"anonymous":false}],"bytecode":{"object":"0x60a060405234801561000f575f5ffd5b50604051610667380380610667833981810160405281019061003191906100c9565b8073ffffffffffffffffffffffffffffffffffffffff1660808173ffffffffffffffffffffffffffffffffffffffff1681525050506100f4565b5f5ffd5b5f73ffffffffffffffffffffffffffffffffffffffff82169050919050565b5f6100988261006f565b9050919050565b6100a88161008e565b81146100b2575f5ffd5b50565b5f815190506100c38161009f565b92915050565b5f602082840312156100de576100dd61006b565b5b5f6100eb848285016100b5565b91505092915050565b60805161054f6101185f395f818160740152818160e401526101a2015261054f5ff3fe608060405234801561000f575f5ffd5b5060043610610034575f3560e01c806354cfe21614610038578063a204898614610056575b5f5ffd5b610040610072565b60405161004d91906102ba565b60405180910390f35b610070600480360381019061006b9190610302565b610096565b005b7f000000000000000000000000000000000000000000000000000000000000000081565b5f818036038101906100a89190610477565b905033816020019073ffffffffffffffffffffffffffffffffffffffff16908173ffffffffffffffffffffffffffffffffffffffff16815250507f0000000000000000000000000000000000000000000000000000000000000000816040019073ffffffffffffffffffffffffffffffffffffffff16908173ffffffffffffffffffffffffffffffffffffffff1681525050806040015173ffffffffffffffffffffffffffffffffffffffff16816020015173ffffffffffffffffffffffffffffffffffffffff16825f01517fb160545ba13423611b1bee41ce793d8cf1c84bf04cf366771c589ea83962f10860405160405180910390a47f000000000000000000000000000000000000000000000000000000000000000073ffffffffffffffffffffffffffffffffffffffff16639c74b0a86040518060600160405280845f01518152602001846020015173ffffffffffffffffffffffffffffffffffffffff168152602001846040015173ffffffffffffffffffffffffffffffffffffffff168152506040518263ffffffff1660e01b815260040161024a9190610500565b5f604051808303815f87803b158015610261575f5ffd5b505af1158015610273573d5f5f3e3d5ffd5b505050505050565b5f73ffffffffffffffffffffffffffffffffffffffff82169050919050565b5f6102a48261027b565b9050919050565b6102b48161029a565b82525050565b5f6020820190506102cd5f8301846102ab565b92915050565b5f604051905090565b5f5ffd5b5f5ffd5b5f606082840312156102f9576102f86102e0565b5b81905092915050565b5f60608284031215610317576103166102dc565b5b5f610324848285016102e4565b91505092915050565b5f5ffd5b5f601f19601f8301169050919050565b7f4e487b71000000000000000000000000000000000000000000000000000000005f52604160045260245ffd5b61037782610331565b810181811067ffffffffffffffff8211171561039657610395610341565b5b80604052505050565b5f6103a86102d3565b90506103b4828261036e565b919050565b5f819050919050565b6103cb816103b9565b81146103d5575f5ffd5b50565b5f813590506103e6816103c2565b92915050565b6103f58161029a565b81146103ff575f5ffd5b50565b5f81359050610410816103ec565b92915050565b5f6060828403121561042b5761042a61032d565b5b610435606061039f565b90505f610444848285016103d8565b5f83015250602061045784828501610402565b602083015250604061046b84828501610402565b60408301525092915050565b5f6060828403121561048c5761048b6102dc565b5b5f61049984828501610416565b91505092915050565b6104ab816103b9565b82525050565b6104ba8161029a565b82525050565b606082015f8201516104d45f8501826104a2565b5060208201516104e760208501826104b1565b5060408201516104fa60408501826104b1565b50505050565b5f6060820190506105135f8301846104c0565b9291505056fea26469706673582212209fe284645fed9913eda52d7d997086f0ae45ee5e0dce04ab8a21948fedc1c74b64736f6c634300081e0033","linkReferences":{}},"methodIdentifiers":{"RECEIVE_ADDR()":"54cfe216","sendMes((uint256,address,address))":"a2048986"},"id":19}