{"abi":[{"type":"function","name":"receiveMes","inputs":[{"name":"mes","type":"tuple","internalType":"struct received.Mes","components":[{"name":"id","type":"uint256","internalType":"uint256"},{"name":"from","type":"address","internalType":"address"},{"name":"to","type":"address","internalType":"address"}]}],"outputs":[],"stateMutability":"nonpayable"},{"type":"function","name":"receivedFlag","inputs":[{"name":"","type":"uint256","internalType":"uint256"}],"outputs":[{"name":"","type":"bool","internalType":"bool"}],"stateMutability":"view"},{"type":"event","name":"MessageReceived","inputs":[{"name":"id","type":"uint256","indexed":true,"internalType":"uint256"},{"name":"from","type":"address","indexed":true,"internalType":"address"},{"name":"to","type":"address","indexed":true,"internalType":"address"}],"anonymous":false}],"bytecode":{"object":"0x6080604052348015600e575f5ffd5b506102ed8061001c5f395ff3fe608060405234801561000f575f5ffd5b5060043610610034575f3560e01c80637d647cf2146100385780639c74b0a814610068575b5f5ffd5b610052600480360381019061004d9190610187565b610084565b60405161005f91906101cc565b60405180910390f35b610082600480360381019061007d9190610207565b6100a0565b005b5f602052805f5260405f205f915054906101000a900460ff1681565b60015f5f835f013581526020019081526020015f205f6101000a81548160ff0219169083151502179055508060400160208101906100de919061028c565b73ffffffffffffffffffffffffffffffffffffffff16816020016020810190610107919061028c565b73ffffffffffffffffffffffffffffffffffffffff16825f01357fa2a3e8859aed03fbfaae627a7eb52f6e9b4fbf7afb18e03bcfdf8644a59e7f1a60405160405180910390a450565b5f5ffd5b5f819050919050565b61016681610154565b8114610170575f5ffd5b50565b5f813590506101818161015d565b92915050565b5f6020828403121561019c5761019b610150565b5b5f6101a984828501610173565b91505092915050565b5f8115159050919050565b6101c6816101b2565b82525050565b5f6020820190506101df5f8301846101bd565b92915050565b5f5ffd5b5f606082840312156101fe576101fd6101e5565b5b81905092915050565b5f6060828403121561021c5761021b610150565b5b5f610229848285016101e9565b91505092915050565b5f73ffffffffffffffffffffffffffffffffffffffff82169050919050565b5f61025b82610232565b9050919050565b61026b81610251565b8114610275575f5ffd5b50565b5f8135905061028681610262565b92915050565b5f602082840312156102a1576102a0610150565b5b5f6102ae84828501610278565b9150509291505056fea2646970667358221220815de1130a2806c45c02384c8a27ce2961e720bb90628eca1299c63beb259c7664736f6c634300081e0033","linkReferences":{}},"methodIdentifiers":{"receiveMes((uint256,address,address))":"9c74b0a8","receivedFlag(uint256)":"7d647cf2"},"id":16}